{
  "_format": "hh-sol-artifact-1",
  "contractName": "newCyberInsurance",
  "sourceName": "contracts/newCyberInsurance.sol",
  "abi": [
    {
      "inputs": [
        {
          "internalType": "address payable",
          "name": "_companyAddress",
          "type": "address"
        },
        {
          "internalType": "address",
          "name": "_CrimeDeptPerson",
          "type": "address"
        }
      ],
      "stateMutability": "nonpayable",
      "type": "constructor"
    },
    {
      "inputs": [],
      "name": "CrimeDeptPerson",
      "outputs": [
        {
          "internalType": "address",
          "name": "",
          "type": "address"
        }
      ],
      "stateMutability": "view",
      "type": "function"
    },
    {
      "inputs": [
        {
          "internalType": "uint64",
          "name": "_claimAmount",
          "type": "uint64"
        }
      ],
      "name": "applyForClaim",
      "outputs": [],
      "stateMutability": "nonpayable",
      "type": "function"
    },
    {
      "inputs": [
        {
          "internalType": "uint64",
          "name": "_ClaimAmountWanted",
          "type": "uint64"
        },
        {
          "internalType": "uint64",
          "name": "_premium",
          "type": "uint64"
        }
      ],
      "name": "buyPolicy",
      "outputs": [],
      "stateMutability": "payable",
      "type": "function"
    },
    {
      "inputs": [
        {
          "internalType": "address",
          "name": "",
          "type": "address"
        },
        {
          "internalType": "uint256",
          "name": "",
          "type": "uint256"
        }
      ],
      "name": "claims",
      "outputs": [
        {
          "internalType": "uint64",
          "name": "claimAmount",
          "type": "uint64"
        },
        {
          "internalType": "string",
          "name": "status",
          "type": "string"
        }
      ],
      "stateMutability": "view",
      "type": "function"
    },
    {
      "inputs": [],
      "name": "companyAddress",
      "outputs": [
        {
          "internalType": "address payable",
          "name": "",
          "type": "address"
        }
      ],
      "stateMutability": "view",
      "type": "function"
    },
    {
      "inputs": [
        {
          "internalType": "address",
          "name": "_user",
          "type": "address"
        }
      ],
      "name": "getClaimsOfUser",
      "outputs": [
        {
          "components": [
            {
              "internalType": "uint64",
              "name": "claimAmount",
              "type": "uint64"
            },
            {
              "internalType": "string",
              "name": "status",
              "type": "string"
            }
          ],
          "internalType": "struct newCyberInsurance.Claim[]",
          "name": "",
          "type": "tuple[]"
        }
      ],
      "stateMutability": "view",
      "type": "function"
    },
    {
      "inputs": [],
      "name": "getUsers",
      "outputs": [
        {
          "internalType": "address[]",
          "name": "",
          "type": "address[]"
        }
      ],
      "stateMutability": "view",
      "type": "function"
    },
    {
      "inputs": [
        {
          "internalType": "address",
          "name": "",
          "type": "address"
        }
      ],
      "name": "mappingOfUserstoPolicy",
      "outputs": [
        {
          "internalType": "uint64",
          "name": "claimAmountAllowed",
          "type": "uint64"
        },
        {
          "internalType": "uint64",
          "name": "premium",
          "type": "uint64"
        },
        {
          "internalType": "bool",
          "name": "isPolicyActive",
          "type": "bool"
        }
      ],
      "stateMutability": "view",
      "type": "function"
    },
    {
      "inputs": [],
      "name": "payPremium",
      "outputs": [],
      "stateMutability": "payable",
      "type": "function"
    },
    {
      "inputs": [
        {
          "internalType": "address",
          "name": "_user",
          "type": "address"
        },
        {
          "internalType": "uint64",
          "name": "_claimIndex",
          "type": "uint64"
        }
      ],
      "name": "transferClaim",
      "outputs": [],
      "stateMutability": "payable",
      "type": "function"
    },
    {
      "inputs": [
        {
          "internalType": "address",
          "name": "_user",
          "type": "address"
        },
        {
          "internalType": "bool",
          "name": "_verdict",
          "type": "bool"
        },
        {
          "internalType": "uint64",
          "name": "_claimIndex",
          "type": "uint64"
        }
      ],
      "name": "verifyClaim",
      "outputs": [],
      "stateMutability": "payable",
      "type": "function"
    }
  ],
  "bytecode": "0x60806040523480156200001157600080fd5b506040516200246e3803806200246e83398181016040528101906200003791906200016f565b816000806101000a81548173ffffffffffffffffffffffffffffffffffffffff021916908373ffffffffffffffffffffffffffffffffffffffff16021790555080600160006101000a81548173ffffffffffffffffffffffffffffffffffffffff021916908373ffffffffffffffffffffffffffffffffffffffff1602179055505050620001b6565b600080fd5b600073ffffffffffffffffffffffffffffffffffffffff82169050919050565b6000620000f282620000c5565b9050919050565b6200010481620000e5565b81146200011057600080fd5b50565b6000815190506200012481620000f9565b92915050565b60006200013782620000c5565b9050919050565b62000149816200012a565b81146200015557600080fd5b50565b60008151905062000169816200013e565b92915050565b60008060408385031215620001895762000188620000c0565b5b6000620001998582860162000113565b9250506020620001ac8582860162000158565b9150509250929050565b6122a880620001c66000396000f3fe60806040526004361061009b5760003560e01c806353e1ead91161006457806353e1ead91461017c578063560bc198146101a7578063a54d732e146101c3578063ab541a85146101df578063b6801f311461021d578063be62364c146102465761009b565b8062ce8e3e146100a05780631188b247146100cb57806329c08ba21461010a57806333dec7a61461011457806338342b0614610151575b600080fd5b3480156100ac57600080fd5b506100b5610262565b6040516100c291906114dc565b60405180910390f35b3480156100d757600080fd5b506100f260048036038101906100ed919061152f565b6102f0565b6040516101019392919061159a565b60405180910390f35b61011261034f565b005b34801561012057600080fd5b5061013b6004803603810190610136919061152f565b610514565b604051610148919061176f565b60405180910390f35b34801561015d57600080fd5b50610166610676565b60405161017391906117a0565b60405180910390f35b34801561018857600080fd5b5061019161069c565b60405161019e91906117dc565b60405180910390f35b6101c160048036038101906101bc9190611823565b6106c0565b005b6101dd60048036038101906101d89190611863565b610a17565b005b3480156101eb57600080fd5b50610206600480360381019061020191906118d9565b610bee565b604051610214929190611963565b60405180910390f35b34801561022957600080fd5b50610244600480360381019061023f9190611993565b610ccb565b005b610260600480360381019061025b91906119ec565b610f14565b005b606060028054806020026020016040519081016040528092919081815260200182805480156102e657602002820191906000526020600020905b8160009054906101000a900473ffffffffffffffffffffffffffffffffffffffff1673ffffffffffffffffffffffffffffffffffffffff168152602001906001019080831161029c575b5050505050905090565b60036020528060005260406000206000915090508060000160009054906101000a900467ffffffffffffffff16908060000160089054906101000a900467ffffffffffffffff16908060000160109054906101000a900460ff16905083565b600360003373ffffffffffffffffffffffffffffffffffffffff1673ffffffffffffffffffffffffffffffffffffffff16815260200190815260200160002060000160089054906101000a900467ffffffffffffffff1667ffffffffffffffff163373ffffffffffffffffffffffffffffffffffffffff16311015610409576040517f08c379a000000000000000000000000000000000000000000000000000000000815260040161040090611a8b565b60405180910390fd5b600360003373ffffffffffffffffffffffffffffffffffffffff1673ffffffffffffffffffffffffffffffffffffffff16815260200190815260200160002060000160089054906101000a900467ffffffffffffffff1667ffffffffffffffff1634146104ab576040517f08c379a00000000000000000000000000000000000000000000000000000000081526004016104a290611af7565b60405180910390fd5b60008054906101000a900473ffffffffffffffffffffffffffffffffffffffff1673ffffffffffffffffffffffffffffffffffffffff166108fc349081150290604051600060405180830381858888f19350505050158015610511573d6000803e3d6000fd5b50565b6060600460008373ffffffffffffffffffffffffffffffffffffffff1673ffffffffffffffffffffffffffffffffffffffff168152602001908152602001600020805480602002602001604051908101604052809291908181526020016000905b8282101561066b57838290600052602060002090600202016040518060400160405290816000820160009054906101000a900467ffffffffffffffff1667ffffffffffffffff1667ffffffffffffffff1681526020016001820180546105da90611b46565b80601f016020809104026020016040519081016040528092919081815260200182805461060690611b46565b80156106535780601f1061062857610100808354040283529160200191610653565b820191906000526020600020905b81548152906001019060200180831161063657829003601f168201915b50505050508152505081526020019060010190610575565b505050509050919050565b600160009054906101000a900473ffffffffffffffffffffffffffffffffffffffff1681565b60008054906101000a900473ffffffffffffffffffffffffffffffffffffffff1681565b6002339080600181540180825580915050600190039060005260206000200160009091909190916101000a81548173ffffffffffffffffffffffffffffffffffffffff021916908373ffffffffffffffffffffffffffffffffffffffff16021790555081600360003373ffffffffffffffffffffffffffffffffffffffff1673ffffffffffffffffffffffffffffffffffffffff16815260200190815260200160002060000160006101000a81548167ffffffffffffffff021916908367ffffffffffffffff16021790555080600360003373ffffffffffffffffffffffffffffffffffffffff1673ffffffffffffffffffffffffffffffffffffffff16815260200190815260200160002060000160086101000a81548167ffffffffffffffff021916908367ffffffffffffffff1602179055506001600360003373ffffffffffffffffffffffffffffffffffffffff1673ffffffffffffffffffffffffffffffffffffffff16815260200190815260200160002060000160106101000a81548160ff021916908315150217905550600360003373ffffffffffffffffffffffffffffffffffffffff1673ffffffffffffffffffffffffffffffffffffffff16815260200190815260200160002060000160089054906101000a900467ffffffffffffffff1667ffffffffffffffff163373ffffffffffffffffffffffffffffffffffffffff1631101561090a576040517f08c379a000000000000000000000000000000000000000000000000000000000815260040161090190611a8b565b60405180910390fd5b600360003373ffffffffffffffffffffffffffffffffffffffff1673ffffffffffffffffffffffffffffffffffffffff16815260200190815260200160002060000160089054906101000a900467ffffffffffffffff1667ffffffffffffffff1634146109ac576040517f08c379a00000000000000000000000000000000000000000000000000000000081526004016109a390611af7565b60405180910390fd5b60008054906101000a900473ffffffffffffffffffffffffffffffffffffffff1673ffffffffffffffffffffffffffffffffffffffff166108fc349081150290604051600060405180830381858888f19350505050158015610a12573d6000803e3d6000fd5b505050565b60008054906101000a900473ffffffffffffffffffffffffffffffffffffffff1673ffffffffffffffffffffffffffffffffffffffff163373ffffffffffffffffffffffffffffffffffffffff1614610aa5576040517f08c379a0000000000000000000000000000000000000000000000000000000008152600401610a9c90611be9565b60405180910390fd5b6040518060400160405280600881526020017f414343455054454400000000000000000000000000000000000000000000000081525080519060200120600460008473ffffffffffffffffffffffffffffffffffffffff1673ffffffffffffffffffffffffffffffffffffffff1681526020019081526020016000208267ffffffffffffffff1681548110610b3d57610b3c611c09565b5b9060005260206000209060020201600101604051610b5b9190611cdb565b604051809103902014610ba3576040517f08c379a0000000000000000000000000000000000000000000000000000000008152600401610b9a90611d3e565b60405180910390fd5b8173ffffffffffffffffffffffffffffffffffffffff166108fc349081150290604051600060405180830381858888f19350505050158015610be9573d6000803e3d6000fd5b505050565b60046020528160005260406000208181548110610c0a57600080fd5b9060005260206000209060020201600091509150508060000160009054906101000a900467ffffffffffffffff1690806001018054610c4890611b46565b80601f0160208091040260200160405190810160405280929190818152602001828054610c7490611b46565b8015610cc15780601f10610c9657610100808354040283529160200191610cc1565b820191906000526020600020905b815481529060010190602001808311610ca457829003601f168201915b5050505050905082565b60011515600360003373ffffffffffffffffffffffffffffffffffffffff1673ffffffffffffffffffffffffffffffffffffffff16815260200190815260200160002060000160109054906101000a900460ff16151514610d61576040517f08c379a0000000000000000000000000000000000000000000000000000000008152600401610d5890611daa565b60405180910390fd5b8067ffffffffffffffff16600360003373ffffffffffffffffffffffffffffffffffffffff1673ffffffffffffffffffffffffffffffffffffffff16815260200190815260200160002060000160009054906101000a900467ffffffffffffffff1667ffffffffffffffff161015610e0e576040517f08c379a0000000000000000000000000000000000000000000000000000000008152600401610e0590611e3c565b60405180910390fd5b600460003373ffffffffffffffffffffffffffffffffffffffff1673ffffffffffffffffffffffffffffffffffffffff16815260200190815260200160002060405180604001604052808367ffffffffffffffff1681526020016040518060400160405280600581526020017f46494c4544000000000000000000000000000000000000000000000000000000815250815250908060018154018082558091505060019003906000526020600020906002020160009091909190915060008201518160000160006101000a81548167ffffffffffffffff021916908367ffffffffffffffff1602179055506020820151816001019081610f0e9190612037565b50505050565b600160009054906101000a900473ffffffffffffffffffffffffffffffffffffffff1673ffffffffffffffffffffffffffffffffffffffff163373ffffffffffffffffffffffffffffffffffffffff1614610fa4576040517f08c379a0000000000000000000000000000000000000000000000000000000008152600401610f9b9061217b565b60405180910390fd5b6040518060400160405280600581526020017f46494c454400000000000000000000000000000000000000000000000000000081525080519060200120600460008573ffffffffffffffffffffffffffffffffffffffff1673ffffffffffffffffffffffffffffffffffffffff1681526020019081526020016000208267ffffffffffffffff168154811061103c5761103b611c09565b5b906000526020600020906002020160010160405161105a9190611cdb565b6040518091039020146110a2576040517f08c379a0000000000000000000000000000000000000000000000000000000008152600401611099906121e7565b60405180910390fd5b6001151582151503611337576040518060400160405280600881526020017f4143434550544544000000000000000000000000000000000000000000000000815250600460008573ffffffffffffffffffffffffffffffffffffffff1673ffffffffffffffffffffffffffffffffffffffff1681526020019081526020016000208267ffffffffffffffff168154811061113f5761113e611c09565b5b9060005260206000209060020201600101908161115c9190612037565b506000600460008573ffffffffffffffffffffffffffffffffffffffff1673ffffffffffffffffffffffffffffffffffffffff1681526020019081526020016000208267ffffffffffffffff16815481106111ba576111b9611c09565b5b906000526020600020906002020160000160009054906101000a900467ffffffffffffffff16905080600360008673ffffffffffffffffffffffffffffffffffffffff1673ffffffffffffffffffffffffffffffffffffffff16815260200190815260200160002060000160008282829054906101000a900467ffffffffffffffff166112479190612236565b92506101000a81548167ffffffffffffffff021916908367ffffffffffffffff1602179055506000600360008673ffffffffffffffffffffffffffffffffffffffff1673ffffffffffffffffffffffffffffffffffffffff16815260200190815260200160002060000160009054906101000a900467ffffffffffffffff1667ffffffffffffffff1603611331576000600360008673ffffffffffffffffffffffffffffffffffffffff1673ffffffffffffffffffffffffffffffffffffffff16815260200190815260200160002060000160106101000a81548160ff0219169083151502179055505b506113e7565b6040518060400160405280600881526020017f52454a4543544544000000000000000000000000000000000000000000000000815250600460008573ffffffffffffffffffffffffffffffffffffffff1673ffffffffffffffffffffffffffffffffffffffff1681526020019081526020016000208267ffffffffffffffff16815481106113c8576113c7611c09565b5b906000526020600020906002020160010190816113e59190612037565b505b505050565b600081519050919050565b600082825260208201905092915050565b6000819050602082019050919050565b600073ffffffffffffffffffffffffffffffffffffffff82169050919050565b600061144382611418565b9050919050565b61145381611438565b82525050565b6000611465838361144a565b60208301905092915050565b6000602082019050919050565b6000611489826113ec565b61149381856113f7565b935061149e83611408565b8060005b838110156114cf5781516114b68882611459565b97506114c183611471565b9250506001810190506114a2565b5085935050505092915050565b600060208201905081810360008301526114f6818461147e565b905092915050565b600080fd5b61150c81611438565b811461151757600080fd5b50565b60008135905061152981611503565b92915050565b600060208284031215611545576115446114fe565b5b60006115538482850161151a565b91505092915050565b600067ffffffffffffffff82169050919050565b6115798161155c565b82525050565b60008115159050919050565b6115948161157f565b82525050565b60006060820190506115af6000830186611570565b6115bc6020830185611570565b6115c9604083018461158b565b949350505050565b600081519050919050565b600082825260208201905092915050565b6000819050602082019050919050565b6116068161155c565b82525050565b600081519050919050565b600082825260208201905092915050565b60005b8381101561164657808201518184015260208101905061162b565b60008484015250505050565b6000601f19601f8301169050919050565b600061166e8261160c565b6116788185611617565b9350611688818560208601611628565b61169181611652565b840191505092915050565b60006040830160008301516116b460008601826115fd565b50602083015184820360208601526116cc8282611663565b9150508091505092915050565b60006116e5838361169c565b905092915050565b6000602082019050919050565b6000611705826115d1565b61170f81856115dc565b935083602082028501611721856115ed565b8060005b8581101561175d578484038952815161173e85826116d9565b9450611749836116ed565b925060208a01995050600181019050611725565b50829750879550505050505092915050565b6000602082019050818103600083015261178981846116fa565b905092915050565b61179a81611438565b82525050565b60006020820190506117b56000830184611791565b92915050565b60006117c682611418565b9050919050565b6117d6816117bb565b82525050565b60006020820190506117f160008301846117cd565b92915050565b6118008161155c565b811461180b57600080fd5b50565b60008135905061181d816117f7565b92915050565b6000806040838503121561183a576118396114fe565b5b60006118488582860161180e565b92505060206118598582860161180e565b9150509250929050565b6000806040838503121561187a576118796114fe565b5b60006118888582860161151a565b92505060206118998582860161180e565b9150509250929050565b6000819050919050565b6118b6816118a3565b81146118c157600080fd5b50565b6000813590506118d3816118ad565b92915050565b600080604083850312156118f0576118ef6114fe565b5b60006118fe8582860161151a565b925050602061190f858286016118c4565b9150509250929050565b600082825260208201905092915050565b60006119358261160c565b61193f8185611919565b935061194f818560208601611628565b61195881611652565b840191505092915050565b60006040820190506119786000830185611570565b818103602083015261198a818461192a565b90509392505050565b6000602082840312156119a9576119a86114fe565b5b60006119b78482850161180e565b91505092915050565b6119c98161157f565b81146119d457600080fd5b50565b6000813590506119e6816119c0565b92915050565b600080600060608486031215611a0557611a046114fe565b5b6000611a138682870161151a565b9350506020611a24868287016119d7565b9250506040611a358682870161180e565b9150509250925092565b7f42616c616e6365206973206c657373207468616e207072656d69756d00000000600082015250565b6000611a75601c83611919565b9150611a8082611a3f565b602082019050919050565b60006020820190508181036000830152611aa481611a68565b9050919050565b7f496e636f7272656374207072656d69756d20616d6f756e740000000000000000600082015250565b6000611ae1601883611919565b9150611aec82611aab565b602082019050919050565b60006020820190508181036000830152611b1081611ad4565b9050919050565b7f4e487b7100000000000000000000000000000000000000000000000000000000600052602260045260246000fd5b60006002820490506001821680611b5e57607f821691505b602082108103611b7157611b70611b17565b5b50919050565b7f4f6e6c7920636f6d70616e792063616e207472616e7366657220636c61696d2060008201527f616d6f756e740000000000000000000000000000000000000000000000000000602082015250565b6000611bd3602683611919565b9150611bde82611b77565b604082019050919050565b60006020820190508181036000830152611c0281611bc6565b9050919050565b7f4e487b7100000000000000000000000000000000000000000000000000000000600052603260045260246000fd5b600081905092915050565b60008190508160005260206000209050919050565b60008154611c6581611b46565b611c6f8186611c38565b94506001821660008114611c8a5760018114611c9f57611cd2565b60ff1983168652811515820286019350611cd2565b611ca885611c43565b60005b83811015611cca57815481890152600182019150602081019050611cab565b838801955050505b50505092915050565b6000611ce78284611c58565b915081905092915050565b7f596f757220636c61696d2069732072656a656374656400000000000000000000600082015250565b6000611d28601683611919565b9150611d3382611cf2565b602082019050919050565b60006020820190508181036000830152611d5781611d1b565b9050919050565b7f506f6c696379206973206e6f7420616374697665000000000000000000000000600082015250565b6000611d94601483611919565b9150611d9f82611d5e565b602082019050919050565b60006020820190508181036000830152611dc381611d87565b9050919050565b7f436c61696d20616d6f756e74206578636565647320616c6c6f776564206c696d60008201527f6974000000000000000000000000000000000000000000000000000000000000602082015250565b6000611e26602283611919565b9150611e3182611dca565b604082019050919050565b60006020820190508181036000830152611e5581611e19565b9050919050565b7f4e487b7100000000000000000000000000000000000000000000000000000000600052604160045260246000fd5b60008190508160005260206000209050919050565b60006020601f8301049050919050565b600082821b905092915050565b600060088302611eed7fffffffffffffffffffffffffffffffffffffffffffffffffffffffffffffffff82611eb0565b611ef78683611eb0565b95508019841693508086168417925050509392505050565b6000819050919050565b6000611f34611f2f611f2a846118a3565b611f0f565b6118a3565b9050919050565b6000819050919050565b611f4e83611f19565b611f62611f5a82611f3b565b848454611ebd565b825550505050565b600090565b611f77611f6a565b611f82818484611f45565b505050565b5b81811015611fa657611f9b600082611f6f565b600181019050611f88565b5050565b601f821115611feb57611fbc81611e8b565b611fc584611ea0565b81016020851015611fd4578190505b611fe8611fe085611ea0565b830182611f87565b50505b505050565b600082821c905092915050565b600061200e60001984600802611ff0565b1980831691505092915050565b60006120278383611ffd565b9150826002028217905092915050565b6120408261160c565b67ffffffffffffffff81111561205957612058611e5c565b5b6120638254611b46565b61206e828285611faa565b600060209050601f8311600181146120a1576000841561208f578287015190505b612099858261201b565b865550612101565b601f1984166120af86611e8b565b60005b828110156120d7578489015182556001820191506020850194506020810190506120b2565b868310156120f457848901516120f0601f891682611ffd565b8355505b6001600288020188555050505b505050505050565b7f4f6e6c79204372696d6544657074506572736f6e2063616e207665726966792060008201527f636c61696d730000000000000000000000000000000000000000000000000000602082015250565b6000612165602683611919565b915061217082612109565b604082019050919050565b6000602082019050818103600083015261219481612158565b9050919050565b7f436c61696d2068617320616c7265616479206265656e2070726f636573736564600082015250565b60006121d1602083611919565b91506121dc8261219b565b602082019050919050565b60006020820190508181036000830152612200816121c4565b9050919050565b7f4e487b7100000000000000000000000000000000000000000000000000000000600052601160045260246000fd5b60006122418261155c565b915061224c8361155c565b9250828203905067ffffffffffffffff81111561226c5761226b612207565b5b9291505056fea2646970667358221220ae025613e1bdb0828714639f40105ebcfc50635ab94110a04824ed69b883f54d64736f6c63430008110033",
  "linkReferences": {},
  "deployedLinkReferences": {}
}