{
    "_format": "hh-sol-artifact-1",
    "contractName": "newCyberInsurance",
    "sourceName": "contracts/newCyberInsurance.sol",
    "abi": [
        {
            "inputs": [
                {
                    "internalType": "address",
                    "name": "_CrimeDeptPerson",
                    "type": "address"
                }
            ],
            "stateMutability": "nonpayable",
            "type": "constructor"
        },
        {
            "inputs": [],
            "name": "CrimeDeptPerson",
            "outputs": [
                {
                    "internalType": "address",
                    "name": "",
                    "type": "address"
                }
            ],
            "stateMutability": "view",
            "type": "function"
        },
        {
            "inputs": [
                {
                    "internalType": "uint256",
                    "name": "_claimAmount",
                    "type": "uint256"
                }
            ],
            "name": "applyForClaim",
            "outputs": [],
            "stateMutability": "nonpayable",
            "type": "function"
        },
        {
            "inputs": [
                {
                    "internalType": "uint256",
                    "name": "_ClaimAmountWanted",
                    "type": "uint256"
                },
                {
                    "internalType": "uint256",
                    "name": "_premium",
                    "type": "uint256"
                }
            ],
            "name": "buyPolicy",
            "outputs": [],
            "stateMutability": "payable",
            "type": "function"
        },
        {
            "inputs": [
                {
                    "internalType": "address",
                    "name": "",
                    "type": "address"
                },
                {
                    "internalType": "uint256",
                    "name": "",
                    "type": "uint256"
                }
            ],
            "name": "claims",
            "outputs": [
                {
                    "internalType": "uint256",
                    "name": "claimAmount",
                    "type": "uint256"
                },
                {
                    "internalType": "string",
                    "name": "status",
                    "type": "string"
                }
            ],
            "stateMutability": "view",
            "type": "function"
        },
        {
            "inputs": [],
            "name": "companyAddress",
            "outputs": [
                {
                    "internalType": "address payable",
                    "name": "",
                    "type": "address"
                }
            ],
            "stateMutability": "view",
            "type": "function"
        },
        {
            "inputs": [
                {
                    "internalType": "address",
                    "name": "_user",
                    "type": "address"
                }
            ],
            "name": "getClaimsOfUser",
            "outputs": [
                {
                    "components": [
                        {
                            "internalType": "uint256",
                            "name": "claimAmount",
                            "type": "uint256"
                        },
                        {
                            "internalType": "string",
                            "name": "status",
                            "type": "string"
                        }
                    ],
                    "internalType": "struct newCyberInsurance.Claim[]",
                    "name": "",
                    "type": "tuple[]"
                }
            ],
            "stateMutability": "view",
            "type": "function"
        },
        {
            "inputs": [],
            "name": "getUsers",
            "outputs": [
                {
                    "internalType": "address[]",
                    "name": "",
                    "type": "address[]"
                }
            ],
            "stateMutability": "view",
            "type": "function"
        },
        {
            "inputs": [
                {
                    "internalType": "address",
                    "name": "",
                    "type": "address"
                }
            ],
            "name": "mappingOfUserstoPolicy",
            "outputs": [
                {
                    "internalType": "uint256",
                    "name": "claimAmountAllowed",
                    "type": "uint256"
                },
                {
                    "internalType": "uint256",
                    "name": "premium",
                    "type": "uint256"
                },
                {
                    "internalType": "bool",
                    "name": "isPolicyActive",
                    "type": "bool"
                }
            ],
            "stateMutability": "view",
            "type": "function"
        },
        {
            "inputs": [],
            "name": "payPremium",
            "outputs": [],
            "stateMutability": "payable",
            "type": "function"
        },
        {
            "inputs": [
                {
                    "internalType": "address",
                    "name": "_user",
                    "type": "address"
                },
                {
                    "internalType": "uint256",
                    "name": "_claimIndex",
                    "type": "uint256"
                }
            ],
            "name": "transferClaim",
            "outputs": [],
            "stateMutability": "payable",
            "type": "function"
        },
        {
            "inputs": [
                {
                    "internalType": "address",
                    "name": "_user",
                    "type": "address"
                },
                {
                    "internalType": "bool",
                    "name": "_verdict",
                    "type": "bool"
                },
                {
                    "internalType": "uint256",
                    "name": "_claimIndex",
                    "type": "uint256"
                }
            ],
            "name": "verifyClaim",
            "outputs": [],
            "stateMutability": "payable",
            "type": "function"
        }
    ],
    "bytecode": "0x60806040523480156200001157600080fd5b5060405162001fff38038062001fff833981810160405281019062000037919062000129565b336000806101000a81548173ffffffffffffffffffffffffffffffffffffffff021916908373ffffffffffffffffffffffffffffffffffffffff16021790555080600160006101000a81548173ffffffffffffffffffffffffffffffffffffffff021916908373ffffffffffffffffffffffffffffffffffffffff160217905550506200015b565b600080fd5b600073ffffffffffffffffffffffffffffffffffffffff82169050919050565b6000620000f182620000c4565b9050919050565b6200010381620000e4565b81146200010f57600080fd5b50565b6000815190506200012381620000f8565b92915050565b600060208284031215620001425762000141620000bf565b5b6000620001528482850162000112565b91505092915050565b611e94806200016b6000396000f3fe60806040526004361061009b5760003560e01c806353e1ead91161006457806353e1ead91461017c5780635da2460d146101a757806378a9fae3146101c3578063ab541a85146101df578063e5acee7c1461021d578063eb00b70a146102465761009b565b8062ce8e3e146100a05780631188b247146100cb57806329c08ba21461010a57806333dec7a61461011457806338342b0614610151575b600080fd5b3480156100ac57600080fd5b506100b5610262565b6040516100c29190611150565b60405180910390f35b3480156100d757600080fd5b506100f260048036038101906100ed91906111a3565b6102f0565b60405161010193929190611204565b60405180910390f35b610112610327565b005b34801561012057600080fd5b5061013b600480360381019061013691906111a3565b6104b0565b60405161014891906113d9565b60405180910390f35b34801561015d57600080fd5b506101666105ea565b604051610173919061140a565b60405180910390f35b34801561018857600080fd5b50610191610610565b60405161019e9190611446565b60405180910390f35b6101c160048036038101906101bc919061148d565b610634565b005b6101dd60048036038101906101d891906114f9565b61078c565b005b3480156101eb57600080fd5b506102066004803603810190610201919061154c565b610bd8565b6040516102149291906115d6565b60405180910390f35b34801561022957600080fd5b50610244600480360381019061023f9190611606565b610ca1565b005b610260600480360381019061025b919061154c565b610e93565b005b606060028054806020026020016040519081016040528092919081815260200182805480156102e657602002820191906000526020600020905b8160009054906101000a900473ffffffffffffffffffffffffffffffffffffffff1673ffffffffffffffffffffffffffffffffffffffff168152602001906001019080831161029c575b5050505050905090565b60036020528060005260406000206000915090508060000154908060010154908060020160009054906101000a900460ff16905083565b600360003373ffffffffffffffffffffffffffffffffffffffff1673ffffffffffffffffffffffffffffffffffffffff168152602001908152602001600020600101543373ffffffffffffffffffffffffffffffffffffffff163110156103c3576040517f08c379a00000000000000000000000000000000000000000000000000000000081526004016103ba9061167f565b60405180910390fd5b600360003373ffffffffffffffffffffffffffffffffffffffff1673ffffffffffffffffffffffffffffffffffffffff168152602001908152602001600020600101543414610447576040517f08c379a000000000000000000000000000000000000000000000000000000000815260040161043e906116eb565b60405180910390fd5b60008054906101000a900473ffffffffffffffffffffffffffffffffffffffff1673ffffffffffffffffffffffffffffffffffffffff166108fc349081150290604051600060405180830381858888f193505050501580156104ad573d6000803e3d6000fd5b50565b6060600460008373ffffffffffffffffffffffffffffffffffffffff1673ffffffffffffffffffffffffffffffffffffffff168152602001908152602001600020805480602002602001604051908101604052809291908181526020016000905b828210156105df57838290600052602060002090600202016040518060400160405290816000820154815260200160018201805461054e9061173a565b80601f016020809104026020016040519081016040528092919081815260200182805461057a9061173a565b80156105c75780601f1061059c576101008083540402835291602001916105c7565b820191906000526020600020905b8154815290600101906020018083116105aa57829003601f168201915b50505050508152505081526020019060010190610511565b505050509050919050565b600160009054906101000a900473ffffffffffffffffffffffffffffffffffffffff1681565b60008054906101000a900473ffffffffffffffffffffffffffffffffffffffff1681565b6002339080600181540180825580915050600190039060005260206000200160009091909190916101000a81548173ffffffffffffffffffffffffffffffffffffffff021916908373ffffffffffffffffffffffffffffffffffffffff16021790555081600360003373ffffffffffffffffffffffffffffffffffffffff1673ffffffffffffffffffffffffffffffffffffffff1681526020019081526020016000206000018190555080600360003373ffffffffffffffffffffffffffffffffffffffff1673ffffffffffffffffffffffffffffffffffffffff168152602001908152602001600020600101819055506001600360003373ffffffffffffffffffffffffffffffffffffffff1673ffffffffffffffffffffffffffffffffffffffff16815260200190815260200160002060020160006101000a81548160ff021916908315150217905550610788610327565b5050565b600160009054906101000a900473ffffffffffffffffffffffffffffffffffffffff1673ffffffffffffffffffffffffffffffffffffffff163373ffffffffffffffffffffffffffffffffffffffff161461081c576040517f08c379a0000000000000000000000000000000000000000000000000000000008152600401610813906117dd565b60405180910390fd5b6040518060400160405280600581526020017f46494c454400000000000000000000000000000000000000000000000000000081525080519060200120600460008573ffffffffffffffffffffffffffffffffffffffff1673ffffffffffffffffffffffffffffffffffffffff16815260200190815260200160002082815481106108aa576108a96117fd565b5b90600052602060002090600202016001016040516108c891906118cf565b604051809103902014610910576040517f08c379a000000000000000000000000000000000000000000000000000000000815260040161090790611932565b60405180910390fd5b6001151582151503610b2d576040518060400160405280600881526020017f4143434550544544000000000000000000000000000000000000000000000000815250600460008573ffffffffffffffffffffffffffffffffffffffff1673ffffffffffffffffffffffffffffffffffffffff16815260200190815260200160002082815481106109a3576109a26117fd565b5b906000526020600020906002020160010190816109c09190611b2d565b506000600460008573ffffffffffffffffffffffffffffffffffffffff1673ffffffffffffffffffffffffffffffffffffffff1681526020019081526020016000208281548110610a1457610a136117fd565b5b906000526020600020906002020160000154905080600360008673ffffffffffffffffffffffffffffffffffffffff1673ffffffffffffffffffffffffffffffffffffffff1681526020019081526020016000206000016000828254610a7a9190611c2e565b925050819055506000600360008673ffffffffffffffffffffffffffffffffffffffff1673ffffffffffffffffffffffffffffffffffffffff1681526020019081526020016000206000015403610b27576000600360008673ffffffffffffffffffffffffffffffffffffffff1673ffffffffffffffffffffffffffffffffffffffff16815260200190815260200160002060020160006101000a81548160ff0219169083151502179055505b50610bd3565b6040518060400160405280600881526020017f52454a4543544544000000000000000000000000000000000000000000000000815250600460008573ffffffffffffffffffffffffffffffffffffffff1673ffffffffffffffffffffffffffffffffffffffff1681526020019081526020016000208281548110610bb457610bb36117fd565b5b90600052602060002090600202016001019081610bd19190611b2d565b505b505050565b60046020528160005260406000208181548110610bf457600080fd5b906000526020600020906002020160009150915050806000015490806001018054610c1e9061173a565b80601f0160208091040260200160405190810160405280929190818152602001828054610c4a9061173a565b8015610c975780601f10610c6c57610100808354040283529160200191610c97565b820191906000526020600020905b815481529060010190602001808311610c7a57829003601f168201915b5050505050905082565b60011515600360003373ffffffffffffffffffffffffffffffffffffffff1673ffffffffffffffffffffffffffffffffffffffff16815260200190815260200160002060020160009054906101000a900460ff16151514610d37576040517f08c379a0000000000000000000000000000000000000000000000000000000008152600401610d2e90611cae565b60405180910390fd5b80600360003373ffffffffffffffffffffffffffffffffffffffff1673ffffffffffffffffffffffffffffffffffffffff168152602001908152602001600020600001541015610dbc576040517f08c379a0000000000000000000000000000000000000000000000000000000008152600401610db390611d40565b60405180910390fd5b600460003373ffffffffffffffffffffffffffffffffffffffff1673ffffffffffffffffffffffffffffffffffffffff16815260200190815260200160002060405180604001604052808381526020016040518060400160405280600581526020017f46494c45440000000000000000000000000000000000000000000000000000008152508152509080600181540180825580915050600190039060005260206000209060020201600090919091909150600082015181600001556020820151816001019081610e8d9190611b2d565b50505050565b60008054906101000a900473ffffffffffffffffffffffffffffffffffffffff1673ffffffffffffffffffffffffffffffffffffffff163373ffffffffffffffffffffffffffffffffffffffff1614610f21576040517f08c379a0000000000000000000000000000000000000000000000000000000008152600401610f1890611dd2565b60405180910390fd5b6040518060400160405280600881526020017f414343455054454400000000000000000000000000000000000000000000000081525080519060200120600460008473ffffffffffffffffffffffffffffffffffffffff1673ffffffffffffffffffffffffffffffffffffffff1681526020019081526020016000208281548110610faf57610fae6117fd565b5b9060005260206000209060020201600101604051610fcd91906118cf565b604051809103902014611015576040517f08c379a000000000000000000000000000000000000000000000000000000000815260040161100c90611e3e565b60405180910390fd5b8173ffffffffffffffffffffffffffffffffffffffff166108fc349081150290604051600060405180830381858888f1935050505015801561105b573d6000803e3d6000fd5b505050565b600081519050919050565b600082825260208201905092915050565b6000819050602082019050919050565b600073ffffffffffffffffffffffffffffffffffffffff82169050919050565b60006110b78261108c565b9050919050565b6110c7816110ac565b82525050565b60006110d983836110be565b60208301905092915050565b6000602082019050919050565b60006110fd82611060565b611107818561106b565b93506111128361107c565b8060005b8381101561114357815161112a88826110cd565b9750611135836110e5565b925050600181019050611116565b5085935050505092915050565b6000602082019050818103600083015261116a81846110f2565b905092915050565b600080fd5b611180816110ac565b811461118b57600080fd5b50565b60008135905061119d81611177565b92915050565b6000602082840312156111b9576111b8611172565b5b60006111c78482850161118e565b91505092915050565b6000819050919050565b6111e3816111d0565b82525050565b60008115159050919050565b6111fe816111e9565b82525050565b600060608201905061121960008301866111da565b61122660208301856111da565b61123360408301846111f5565b949350505050565b600081519050919050565b600082825260208201905092915050565b6000819050602082019050919050565b611270816111d0565b82525050565b600081519050919050565b600082825260208201905092915050565b60005b838110156112b0578082015181840152602081019050611295565b60008484015250505050565b6000601f19601f8301169050919050565b60006112d882611276565b6112e28185611281565b93506112f2818560208601611292565b6112fb816112bc565b840191505092915050565b600060408301600083015161131e6000860182611267565b506020830151848203602086015261133682826112cd565b9150508091505092915050565b600061134f8383611306565b905092915050565b6000602082019050919050565b600061136f8261123b565b6113798185611246565b93508360208202850161138b85611257565b8060005b858110156113c757848403895281516113a88582611343565b94506113b383611357565b925060208a0199505060018101905061138f565b50829750879550505050505092915050565b600060208201905081810360008301526113f38184611364565b905092915050565b611404816110ac565b82525050565b600060208201905061141f60008301846113fb565b92915050565b60006114308261108c565b9050919050565b61144081611425565b82525050565b600060208201905061145b6000830184611437565b92915050565b61146a816111d0565b811461147557600080fd5b50565b60008135905061148781611461565b92915050565b600080604083850312156114a4576114a3611172565b5b60006114b285828601611478565b92505060206114c385828601611478565b9150509250929050565b6114d6816111e9565b81146114e157600080fd5b50565b6000813590506114f3816114cd565b92915050565b60008060006060848603121561151257611511611172565b5b60006115208682870161118e565b9350506020611531868287016114e4565b925050604061154286828701611478565b9150509250925092565b6000806040838503121561156357611562611172565b5b60006115718582860161118e565b925050602061158285828601611478565b9150509250929050565b600082825260208201905092915050565b60006115a882611276565b6115b2818561158c565b93506115c2818560208601611292565b6115cb816112bc565b840191505092915050565b60006040820190506115eb60008301856111da565b81810360208301526115fd818461159d565b90509392505050565b60006020828403121561161c5761161b611172565b5b600061162a84828501611478565b91505092915050565b7f42616c616e6365206973206c657373207468616e207072656d69756d00000000600082015250565b6000611669601c8361158c565b915061167482611633565b602082019050919050565b600060208201905081810360008301526116988161165c565b9050919050565b7f496e636f7272656374207072656d69756d20616d6f756e740000000000000000600082015250565b60006116d560188361158c565b91506116e08261169f565b602082019050919050565b60006020820190508181036000830152611704816116c8565b9050919050565b7f4e487b7100000000000000000000000000000000000000000000000000000000600052602260045260246000fd5b6000600282049050600182168061175257607f821691505b6020821081036117655761176461170b565b5b50919050565b7f4f6e6c79204372696d6544657074506572736f6e2063616e207665726966792060008201527f636c61696d730000000000000000000000000000000000000000000000000000602082015250565b60006117c760268361158c565b91506117d28261176b565b604082019050919050565b600060208201905081810360008301526117f6816117ba565b9050919050565b7f4e487b7100000000000000000000000000000000000000000000000000000000600052603260045260246000fd5b600081905092915050565b60008190508160005260206000209050919050565b600081546118598161173a565b611863818661182c565b9450600182166000811461187e5760018114611893576118c6565b60ff19831686528115158202860193506118c6565b61189c85611837565b60005b838110156118be5781548189015260018201915060208101905061189f565b838801955050505b50505092915050565b60006118db828461184c565b915081905092915050565b7f436c61696d2068617320616c7265616479206265656e2070726f636573736564600082015250565b600061191c60208361158c565b9150611927826118e6565b602082019050919050565b6000602082019050818103600083015261194b8161190f565b9050919050565b7f4e487b7100000000000000000000000000000000000000000000000000000000600052604160045260246000fd5b60008190508160005260206000209050919050565b60006020601f8301049050919050565b600082821b905092915050565b6000600883026119e37fffffffffffffffffffffffffffffffffffffffffffffffffffffffffffffffff826119a6565b6119ed86836119a6565b95508019841693508086168417925050509392505050565b6000819050919050565b6000611a2a611a25611a20846111d0565b611a05565b6111d0565b9050919050565b6000819050919050565b611a4483611a0f565b611a58611a5082611a31565b8484546119b3565b825550505050565b600090565b611a6d611a60565b611a78818484611a3b565b505050565b5b81811015611a9c57611a91600082611a65565b600181019050611a7e565b5050565b601f821115611ae157611ab281611981565b611abb84611996565b81016020851015611aca578190505b611ade611ad685611996565b830182611a7d565b50505b505050565b600082821c905092915050565b6000611b0460001984600802611ae6565b1980831691505092915050565b6000611b1d8383611af3565b9150826002028217905092915050565b611b3682611276565b67ffffffffffffffff811115611b4f57611b4e611952565b5b611b59825461173a565b611b64828285611aa0565b600060209050601f831160018114611b975760008415611b85578287015190505b611b8f8582611b11565b865550611bf7565b601f198416611ba586611981565b60005b82811015611bcd57848901518255600182019150602085019450602081019050611ba8565b86831015611bea5784890151611be6601f891682611af3565b8355505b6001600288020188555050505b505050505050565b7f4e487b7100000000000000000000000000000000000000000000000000000000600052601160045260246000fd5b6000611c39826111d0565b9150611c44836111d0565b9250828203905081811115611c5c57611c5b611bff565b5b92915050565b7f506f6c696379206973206e6f7420616374697665000000000000000000000000600082015250565b6000611c9860148361158c565b9150611ca382611c62565b602082019050919050565b60006020820190508181036000830152611cc781611c8b565b9050919050565b7f436c61696d20616d6f756e74206578636565647320616c6c6f776564206c696d60008201527f6974000000000000000000000000000000000000000000000000000000000000602082015250565b6000611d2a60228361158c565b9150611d3582611cce565b604082019050919050565b60006020820190508181036000830152611d5981611d1d565b9050919050565b7f4f6e6c7920636f6d70616e792063616e207472616e7366657220636c61696d2060008201527f616d6f756e740000000000000000000000000000000000000000000000000000602082015250565b6000611dbc60268361158c565b9150611dc782611d60565b604082019050919050565b60006020820190508181036000830152611deb81611daf565b9050919050565b7f596f757220636c61696d2069732072656a656374656400000000000000000000600082015250565b6000611e2860168361158c565b9150611e3382611df2565b602082019050919050565b60006020820190508181036000830152611e5781611e1b565b905091905056fea26469706673582212208e716931e1ea8d66e9d96af87e9595f415dd3682a963220c02bf94f5cb6434c564736f6c63430008110033",
    "linkReferences": {},
    "deployedLinkReferences": {}
}